:020000040800F2
:1000000078200020E90100083B120008750B000869
:10001000371200080F0900087319000800000000DB
:1000200000000000000000000000000003140008B1
:10003000A909000800000000C112000815150008F9
:10004000030200080302000803020008030200087C
:10005000030200080302000803020008030200086C
:10006000030200080302000803020008030200085C
:10007000030200080302000803020008030200084C
:10008000030200080302000803020008030200083C
:10009000030200080302000803020008030200082C
:1000A000030200080302000803020008030200081C
:1000B0000302000803020008791500080302000883
:1000C00003020008030200080302000803020008FC
:1000D0000302000841170008030200080302000899
:1000E00003020008030200080302000800F002F8FF
:1000F00000F06BF80AA090E8000C82448344AAF157
:100100000107DA4501D100F060F8AFF2090EBAE854
:100110000F0013F0010F18BFFB1A43F0010318473B
:10012000F46F0000147000000A444FF0000C10F847
:10013000013B13F0070408BF10F8014B1D1108BF65
:1001400010F8015B641E05D010F8016B641E01F805
:10015000016BF9D113F0080F1EBF10F8014BAD1C55
:100160000C1B09D16D1E58BF01F801CBFAD505E073
:1001700014F8016B01F8016B6D1EF9D59142D6D3CD
:10018000704700000023002400250026103A28BFF5
:1001900078C1FBD8520728BF30C148BF0B607047F9
:1001A000642900F0C380752900F0C080782900F030
:1001B000F980632900F01F83732900F02483002055
:1001C00070471FB51FBD10B510BD00F075FB11467F
:1001D000FFF7F7FF02F0F4FC00F093FB03B4FFF726
:1001E000F2FF03BC01F0CEFB0948804709480047F5
:1001F000FEE7FEE7FEE7FEE7FEE7FEE7FEE7FEE7D7
:10020000FEE7FEE704480549054A064B7047000033
:1002100019150008ED000008781A00207820002049
:10022000781C0020781C0020704710B54C1084EA20
:10023000530404D54042C1F1000138BF491E1B429E
:1002400004D55242C3F1000338BF5B1E00F0F9F938
:1002500014F0804F04D04042C1F1000138BF491E64
:1002600014F0004F04D05242C3F1000338BF5B1EAC
:1002700010BD00000FB4044910B503AA029800F0A5
:10028000C7FA10BC5DF814FB6800002070B5044686
:1002900085690068C10601D5302600E02026C00728
:1002A00007D070BDD4E9012130469047206A401C38
:1002B00020626D1EF6D570BD70B504468569007864
:1002C000C00707D170BDD4E9012120209047206AE2
:1002D000401C20626D1EF6D570BD70B50C460546FB
:1002E000012A05D02878800600D5EA69002302E0BB
:1002F000012305E05B1C934202D2E05C0028F9D1A7
:10030000A869E618C01AA861286A18442862284615
:10031000FFF7BCFF04E0D5E9012114F8010B904779
:10032000B442F8D32846FFF7C7FF70BD2DE9F0416E
:100330000646002410687529314616A510D0AFF383
:100340000080002802DA404213A507E031688A07DE
:1003500001D512A502E0490704D511A5012401E049
:10036000AFF3008000210A2206F1240709E0B0FB68
:10037000F2FCB0FBF2F302FB1C003030785418465C
:10038000491C0028F3D123462A463046BDE8F041F7
:1003900000F0CEB9000000002D0000002B0000008E
:1003A0002000000070B504460D4621461068AFF3EA
:1003B00000802188090502D50F4A7A4402E00E4ADE
:1003C0007A440E32002104F1240305E000F00F0608
:1003D0000009965D5E54491C0028F7D1207800235F
:1003E000000704D5702D02D009B102231132204636
:1003F000BDE8704000F09CB9D86B00002DE9F05FBB
:10040000894604464FF0000ADFF874B1FB44C0F897
:1004100020A02046E1688847002874D0252806D00F
:10042000D4E901219047206A401C2062F1E70026B0
:100430005F462046E16888472028054607DB312DC6
:1004400005D2781910F8200C08B10643F1E7B0077F
:1004500001D526F00406C4F81CA00027C4F818A093
:100460002A2D09D0284601F086FA38B304EB870814
:10047000303DC8F8185019E059F8041B204604EB29
:1004800087029161E1688847012F054618D1E0692C
:10049000002820DA26F020061DE0D8F8180000EB2E
:1004A000800005EB40003038C8F818002046E168AD
:1004B0008847054601F05FFA0028EED1012F0AD0E7
:1004C0002E2D08D12046E16888477F1C0546022F63
:1004D00046F02006C4DBA069002803DA404246F05B
:1004E0000106A061F00701D026F010066C2D0BD09C
:1004F000682D09D04C2D39D06A2D35D0742D35D0CA
:100500007A2D33D016E038E0E1682F462046884740
:10051000B842054609D16C2F26D04FF48060E168BF
:10052000064320468847054604E06C2F1AD04FF456
:10053000807006430DB3A5F14100192802D820357B
:1005400046F400664A462946204626604E46FFF796
:1005500027FE80B101280BD0F61D26F0070000F120
:10056000080956E74020E4E78020D8E70020D6E7D6
:1005700006F104094DE7284652E7206ABDE8F09FDE
:10058000AE6B000040EA010310B59B070FD1042AAF
:100590000DD310C808C9121F9C42F8D020BA19BA4E
:1005A000884201D9012010BD4FF0FF3010BD1AB1B3
:1005B000D30703D0521C07E0002010BD10F8013B08
:1005C00011F8014B1B1B07D110F8013B11F8014B2F
:1005D0001B1B01D1921EF1D1184610BD02F0FF0382
:1005E00043EA032242EA024200F026B94FF0000239
:1005F00000B5134694469646203922BFA0E80C5019
:10060000A0E80C50B1F12001BFF4F7AF090728BFF3
:10061000A0E80C5048BF0CC05DF804EB890028BF6F
:1006200040F8042B08BF704748BF20F8022B11F098
:10063000804F18BF00F8012B704770477047704714
:10064000704753EA020C00F069802DE9F04B4FF03F
:100650000006002B1FBFB3FA83F503FA05F424FA52
:1006600005F65E4012BF1643B2FA82F502FA05F4AF
:10067000C5F120051EBF22FA05FC44EA0C04203512
:1006800056EA044C4FEA144418BF641C4FF00008AB
:100690004FF00009904271EB030C39D3002919BFC8
:1006A000B1FA81F701FA07F6B0FA80F700FA07F617
:1006B000C7F120071EBF20FA07FC46EA0C062037C8
:1006C000B6FBF4FCA7EB0507103F07F01F0BCBF1BF
:1006D00020060CFA0BFB2CFA06F644BFB3460026A4
:1006E000202FA4BF5E464FF0000B5BEA060C08BF4C
:1006F0004FF0010B19EB0B09ABFB027C48EB060832
:10070000C01B06FB02CC0BFB03CC71EB0C01C1E759
:100710000B46024641464846BDE8F08B13B54FF004
:1007200000004FF00001AFF30080BDE81C407047AF
:100730002DE9F0470D4699469246044600F12408FB
:100740000168880604D5E06921F01001216000E00D
:100750000120A84201DD471B00E00027A1697A19AA
:1007600002EB0900081AA0612078C00602D42046D6
:10077000FFF78CFD002608E0D4E901211AF80600F5
:100780009047206A401C761C20624E45F4DB20789E
:10079000C0060AD52046FFF779FD06E0D4E901211D
:1007A00030209047206A401C2062381EA7F10107C4
:1007B000F4DC07E0D4E9012118F805009047206A2D
:1007C000401C2062281EA5F10105F3DC2046FFF73E
:1007D00073FD2078000602D50220BDE8F0870120D5
:1007E000FBE710B5436913B1AFF3008001E0FFF7F9
:1007F00074FD012010BD127800F124010A7000225E
:100800004A700122EDE711684FF0FF32E9E700007E
:10081000074B70B50D467B4400F033F8044628467C
:1008200000F042F810B14FF0FF3070BD204670BDAF
:10083000DF1C00004FF000020429C0F0128010F00D
:10084000030C3FF4D5AECCF1040CBCF1020F18BF81
:1008500000F8012BA8BF20F8022BA1EB0C01FFF739
:10086000C7BE5FEAC17C24BF00F8012B00F8012B52
:1008700048BF00F8012B704701694A1C02610878E3
:10088000704700B58FB0CDE90131002105910549D0
:100890007944CDE9031011466846FFF7AFFD0FB06C
:1008A00000BD0000E5FFFFFF007B00F08000704707
:1008B00000487047141A00207546FFF7F9FFAE464E
:1008C00005006946534620F00700854618B020B55C
:1008D000FFF798FCBDE820404FF000064FF00007FE
:1008E0004FF000084FF0000B21F00701AC46ACE8D8
:1008F000C009ACE8C009ACE8C009ACE8C0098D4645
:1009000070470446AFF300802046FFF767FC00BF46
:10091000FEE72DE9F04786B004460D4616461F4611
:10092000DDE90E89B4F900A0142101A8FFF75EFEED
:1009300000208DF804003888000A8DF8050038780A
:100940008DF80600B8F80000000A8DF8070098F846
:1009500000008DF80800B9F80000000A8DF80900C1
:1009600099F800008DF80A0001208DF80B0020880E
:10097000000A8DF80C0020788DF80D002888000AF8
:100980008DF80E0028788DF80F003088000A8DF859
:10099000100030788DF811000E2201A9032002F01A
:1009A00059FA06B0BDE8F08770472DE9F0410246DC
:1009B00000250026002000230024002791F803C012
:1009C0000CF00F0591F803C00CF0100CBCF1000FF7
:1009D00003D091F802C04CEA050591F800C0BCF1C3
:1009E000000F31D0146800202BE04FF0010C0CFAFE
:1009F00000F3B1F800C00CEA03069E4220D1830048
:100A00004FF00F0C0CFA03F7BC4305FA03FC4CEA59
:100A1000040491F803C0BCF1280F06D14FF0010C7B
:100A20000CFA00FCC2F814C00AE091F803C0BCF153
:100A3000480F05D14FF0010C0CFA00FCC2F810C0B1
:100A4000401C0828D1D31460B1F800C0BCF1FF0FDE
:100A500034DD546800202EE000F1080C4FF001084E
:100A600008FA0CF3B1F800C00CEA03069E4221D14B
:100A700083004FF00F0C0CFA03F7BC4305FA03FC9C
:100A80004CEA040491F803C0BCF1280F05D100F131
:100A9000080C08FA0CF8C2F8148091F803C0BCF1F5
:100AA000480F07D100F1080C4FF0010808FA0CF8C4
:100AB000C2F81080401C0828CED35460BDE8F081F5
:100AC000F0B50A46002300240021002500F000466E
:100AD000B6F1004F02D11D4EF16901E01B4E716865
:100AE000C0F3034583B200F44016B6F5401F08D1A9
:100AF00021F07061154E766826F07066134F7E60A7
:100B000012E000F48016B6F5801F06D1032606FA1F
:100B100005F4A14341F0706106E0460D360103FA89
:100B200006F6B14341F0706122B1460D360103FA79
:100B300006F6314300F00046B6F1004F02D1034EF5
:100B4000F16101E0014E7160F0BD00000000014064
:100B500002460020D3680B400BB1012000E00020CA
:100B6000704741617047016170470AB1016100E05F
:100B70004161704700BFFEE708B50820ADF80000EE
:100B800010208DF8030003208DF802006946094803
:100B9000FFF70BFF08210748FFF7E5FF1020ADF82E
:100BA000000069460348FFF700FF10210148FFF7E6
:100BB000DAFF08BD0008014070B50246FF24FF259A
:100BC0000BE0481E81B212F8010B80EA04030548CD
:100BD000C05C80EA05040448C55C0029F1DC45EAF4
:100BE000042070BD4E6100084E6200082DE9FC41F2
:100BF00004460D4616466B4606223B21682000F04F
:100C000044FA0746BFB99DF801009DF8001040EA7C
:100C1000012000B220809DF803009DF8021040EAF8
:100C2000012000B228809DF805009DF8041040EADC
:100C3000012000B230803846BDE8FC812DE9FC413E
:100C400004460D4616466B4606224321682000F0F6
:100C50001CFA0746BFB99DF801009DF8001040EA54
:100C6000012000B220809DF803009DF8021040EAA8
:100C7000012000B228809DF805009DF8041040EA8C
:100C8000012000B230803846BDE8FC812DE9F84FE4
:100C90006B4602224121682000F0F7F99DF801001F
:100CA0009DF8001040EA01200FFA80FA504604F047
:100CB00085FD804600220B4B04F028FC06460A4ABC
:100CC0000A4B04F07BFB044604F046FB83460849CC
:100CD000584605F0C9F8044605F02AF800B2BDE808
:100CE000F88F000000407540A4703D0AD743424091
:100CF0000000C84210B500200E4908600E48006888
:100D000020F470400C4908600846006840F44050E8
:100D1000086000200949C1F8AC0100F011F8012079
:100D20000449086000F00CF800200449C1F8A8014B
:100D300010BD0000A8812142040C01400080214226
:100D400010B5022000F0BEFE10BD000008B5012164
:100D5000082000F0C7FA4FF44060ADF80000102002
:100D60008DF8030003208DF8020069460448FFF760
:100D70001CFE4FF440610248FFF7F5FE08BD00007D
:100D8000000C014010B500200E4908600E480068B4
:100D900020F470400C4908600846006840F4405058
:100DA000086001200949C1F8AC01FFF7C9FF012023
:100DB00004490860FFF7C4FF00200449C1F8A801F6
:100DC00010BD0000A8812142040C01400080214296
:100DD00070B5054600241648006820F47040144998
:100DE00008600846006840F400400860002614E0EF
:100DF000002010490860FFF7A3FF01200E49C1F849
:100E0000A8016006040E0B487C38006808B1601C1D
:100E1000C4B2FFF795FF701CC6B2082EE8DB15B907
:100E2000FFF7B0FF01E0FFF765FF204670BD00004F
:100E3000040C0140A88121420080214270B5044683
:100E40001248006820F470401049086008460068A5
:100E500040F44050086000200D490860002512E071
:100E6000E0090B49091D08606006040E01200949CC
:100E7000C1F8A801FFF764FF002005490860FFF7EB
:100E80005FFF681CC5B2082DEADB70BD040C014091
:100E9000A88121420080214210B50E48006820F44C
:100EA00070400C4908600846006840F440500860F3
:100EB0000120094908600949C1F8A801FFF740FF6E
:100EC000002005490860FFF73BFF00200349C1F8F7
:100ED000A80110BD040C0140AC81214200802142D8
:100EE00010B50E48006820F470400C4908600846B0
:100EF000006840F440500860002009490860094932
:100F0000C1F8AC01FFF71CFF012005490860054945
:100F1000C1F8AC01FFF714FF10BD0000040C014044
:100F2000A88121420080214210B5002414480068A5
:100F300020F47040124908600846006840F4004000
:100F4000086001200F490860FFF7FAFE01200E49F2
:100F5000C1F8A801FFF7F4FE07E0601CC4B2FA2C48
:100F600003DDFFF7BDFF012010BD06488038006893
:100F70000028F2D10349091F086000BFF4E7000010
:100F8000040C0140AC8121420080214238B501218E
:100F9000084600F0A7F90121042000F0A3F94FF45E
:100FA0000040ADF8000010208DF8030003208DF8FC
:100FB000020069462348FFF7F8FC01212248FFF7A9
:100FC0007FFD002021490860FFF7C0FE80216B20D3
:100FD00000F0DFF8642000F04FFD00216B2000F0EE
:100FE000D8F8032000F093F8002000F088F84FF4C0
:100FF0007A7000F0B1F80021382000F0CAF8002122
:101000006A2000F0C6F80021232000F0C2F88021F9
:10101000372000F0BEF8752000F01AF80446682C5E
:101020000BD101216B2000F0B4F800216C2000F0FE
:10103000B0F8322000F090F801E0012038BD002027
:10104000FCE700000008014000023000BC01214222
:1010500070B50446FFF720FFD020FFF7EFFEFFF743
:1010600063FF2046FFF7EAFEFFF75EFFFFF714FF7E
:10107000D120FFF7E3FEFFF757FF0020FFF7A8FEA0
:101080000546FFF72DFF284670BD2DE9F0410646C5
:101090000F4614461D46FFF7FFFE002141EA4601B8
:1010A000C8B2FFF7CBFEFFF73FFF20B1FFF718FFF5
:1010B0000120BDE8F0813846FFF7C0FEFFF734FF9E
:1010C000FFF7EAFE012101EB4601C8B2FFF7B6FEC9
:1010D000FFF72AFF0DE0012C04D10020FFF778FE76
:1010E000287003E00120FFF773FE2870601EC4B271
:1010F0006D1C002CEFD1FFF7F3FE0020D9E710B5EF
:101100000446E006010E1C2000F043F810BD10B5A7
:101110000446E006010E1B2000F03BF810BD70B540
:1011200004460025BC2C01DB012510E0622C01DB0C
:1011300002250CE02A2C01DB032508E0142C01DB3E
:10114000042504E00A2C01DB052500E006252946DC
:101150001A2000F01EF870BD70B50446B4F57A7F11
:1011600001DD4FF47A74042C00DA04244FF47A7011
:1011700090FBF4F0401EC5B22946192000F009F892
:101180000546264604EBD671C1F34F00FFF7C7FFB3
:1011900070BD70B505460C46FFF77EFED020FFF708
:1011A0004DFEFFF7C1FE18B1FFF79AFE012070BD9A
:1011B0002846FFF743FEFFF7B7FE2046FFF73EFE47
:1011C000FFF7B2FE18B1FFF78BFE0120EFE7FFF744
:1011D00087FE0020EBE72DE9F04105460E46174655
:1011E0009846FFF759FE002141EA4501C8B2FFF7D2
:1011F00025FEFFF799FE20B1FFF772FE0120BDE842
:10120000F0813046FFF71AFEFFF78EFE00240CE057
:1012100018F80400FFF712FEFFF786FE18B1FFF77B
:101220005FFE0120EBE7601CC4B2BC42F0DBFFF7BD
:1012300057FE0020E3E700BFFEE7704770B50021CE
:1012400000230F22C47804B3154C246804F4E0642E
:10125000C4F5E064210AC1F10403CA40447804FAE9
:1012600003F184781440214309010E4C0678A155FE
:10127000047804F01F050124AC4005786D11AD0021
:1012800005F1E025C5F8004109E0047804F01F05E8
:101290000124AC40044D0678761145F8264070BD17
:1012A0000CED00E000E400E080E100E002490143D1
:1012B000024A1160704700000000FA050CED00E0E2
:1012C0007047000029B1064AD2690243044BDA6133
:1012D00004E0034AD2698243014BDA61704700009F
:1012E0000010024029B1064A92690243044B9A61F8
:1012F00004E0034A92698243014B9A6170470000FF
:101300000010024030B500210022002400232D4DA2
:101310006D6805F00C0121B1042905D0082923D1FD
:1013200005E0294D056022E0274D05601FE0254DB1
:101330006D6805F47012234D6D6805F48034022544
:1013400005EB92421CB9214D554305600BE01D4D44
:101350006D6805F400351DB11C4D5543056002E074
:10136000194D5543056002E0174D056000BF00BFF1
:10137000144D6D6805F0F0010909154D6B5C0568A9
:10138000DD4045600F4D6D6805F4E061090A104DC0
:101390006B5C4568DD4085600A4D6D6805F4605101
:1013A000C90A0B4D6B5C4568DD40C560054D6D6835
:1013B00005F44041890B074D6B5CC568B5FBF3F53F
:1013C000056130BD0010024000127A0000093D00A6
:1013D0006E0000207E000020F0B505460C46A01EE1
:1013E00081B22846FFF7E8FB0646601E295CA01E76
:1013F000285C41EA0027BE4201D10120F0BD002057
:10140000FCE7704710B500F001F810BD0CB50020E6
:10141000019000903348006840F480303149086002
:1014200000BF3048006800F4003000900198401C74
:101430000190009818B90198B0F5A06FF1D1294832
:10144000006800F4003010B10120009001E000209D
:1014500000900098012843D12348006840F0100014
:10146000214908600846006820F00300086008462B
:10147000006840F0020008601A4840681949486056
:101480000846406848600846406840F4806048600C
:101490000846406820F47C1048600846406840F4E4
:1014A000E81048600846006840F08070086000BF9F
:1014B0000C48006800F000700028F9D00948406826
:1014C00020F00300074948600846406840F00200E9
:1014D000486000BF0348406800F00C000828F9D1BC
:1014E0000CBD00000010024000200240042808D17A
:1014F0004FF0E021096941F004014FF0E022116151
:1015000007E04FF0E021096921F004014FF0E022EB
:10151000116170477047000010B51348006840F033
:1015200001001149086008464068104908400E490A
:101530004860084600680E4908400B4908600846A4
:10154000006820F4802008600846406820F4FE000F
:1015500048604FF41F008860FFF754FF4FF00060B1
:101560000449086010BD0000001002400000FFF8B0
:10157000FFFFF6FE08ED00E010B501210A4800F07B
:1015800035F801280AD10949086980470021064831
:1015900000F048F86421044800F042F801210248B4
:1015A00000F009F810BD000000080040D80000203D
:1015B000CA4302827047CA430282704721B102883F
:1015C00042F00102028004E002884FF6FE731A40E6
:1015D000028070470146888C704702460020138ABB
:1015E0000B400BB1012000E00020704730B50246EF
:1015F000002000230024158A05EA0103958905EAE5
:10160000010413B10CB1012000E0002030BD1AB17B
:1016100083890B43838102E083898B4383817047F5
:101620008185704781847047002202881D4B984253
:101630000ED01D4B98420BD0B0F1804F08D01B4B01
:10164000984205D01A4B984202D01A4B984204D1C6
:101650004FF68F731A404B881A43174B984207D0A6
:10166000164B984204D04FF6FF431A40CB881A43DA
:1016700002808B8883850B8803850A4B98420BD0A8
:10168000094B984208D00E4B984205D00D4B98421A
:1016900002D00D4B984201D10B7A0386012383823D
:1016A00070470000002C014000340140000400405D
:1016B00000080040000C00400010004000140040F2
:1016C0000040014000440140004801407FB505460C
:1016D0000C4601210420FFF7F5FDADF80850ADF8E8
:1016E00004400020ADF80A00ADF8060001A90D483D
:1016F000FFF79AFF012241210A48FFF788FF1E20C9
:101700008DF8000003208DF801008DF80200012003
:101710008DF803006846FFF791FD01210148FFF7AE
:101720004DFF7FBD00080040002001490860704760
:10173000A00121420120014908607047A001214217
:1017400070B540F22551194800F04FF8C8B117485C
:1017500000F006F9C4B21648008800F4004080B9D1
:1017600013480088C0F30D0012490C54104800883B
:10177000401C0F49088008460088C72801DD00206A
:10178000088040F22441094800F02FF860B1074872
:10179000001D0088C5B205480088C5B2044800880D
:1017A00040F400400249088070BD0000003801404C
:1017B0006C0000204C19002021B1828942F40052B3
:1017C000828104E082894DF6FF731A40828170475E
:1017D00002460020B1F5007F00D100BF13880B4006
:1017E0000BB1012000E00020704770B502460024D4
:1017F00000230025002040F66A16B14200D100BF48
:10180000C1F3421501F01F03012606FA03F3012D6F
:1018100002D19689334006E0022D02D1168A334068
:1018200001E0968A33400C12012606FA04F4168869
:10183000344013B10CB1012000E0002070BDF0B5C0
:101840000346002400260025002040F66A17B9420E
:1018500000D100BF1846C1F3421401F01F06012752
:1018600007FA06F5012C01D10C3004E0022C01D15D
:10187000103000E014301AB107682F43076002E00F
:101880000768AF430760F0BD2DE9F04786B0054615
:101890000E460024A24600BFA1460027B08900B131
:1018A00000BF2F462C8A4CF6FF700440F08804439A
:1018B0002C82AC894EF6F3100440B088318908437D
:1018C000718908430443AC81AC8A4FF6FF40044061
:1018D000B0890443AC8201A8FFF714FD1F4887427A
:1018E00002D1DDF810A001E0DDF80CA0A88900F419
:1018F000004040B10AEBCA0000EB0A103168490011
:10190000B0FBF1F807E00AEBCA0000EB0A103168FF
:101910008900B0FBF1F86420B8FBF0F00401200965
:10192000642101FB1089A88900F4004040B13220F5
:1019300000EBC900B0FBF1F000F00700044308E041
:10194000322000EB09106421B0FBF1F000F00F0031
:1019500004432C8106B0BDE8F08700000038014048
:1019600001468888C0F308007047C1F308028280EE
:10197000704700BFFEE730380A2801D201207047C7
:1019800000207047014600BF704700002DE9FE4F60
:1019900006460F460025684600F0BCFD002442E0E4
:1019A00056F8240057F82410A0EB010ABAF1000FF2
:1019B00001DB514601E0CAF10001084604F0F4F9E8
:1019C00083464FF08F4104F0BDF880465DF8240057
:1019D000002104F079F916D05DF82410404604F097
:1019E000B1F882464FF07E5104F03CFB814629F06D
:1019F000004A0F48416A504604F002FB12D201200F
:101A0000A04005430EE00A48C169404604F0F8F9D9
:101A100005D30748016A404604F0F2FA02D20120D9
:101A2000A0400543641C032CBADB2846BDE8FE8FAA
:101A30007863000810B56FF00400FFF757FD0A48FF
:101A400000680A49B0FBF1F00949087008460078BF
:101A500000EB4001C1EBC0104FF6FF7101EAC0007E
:101A60000449088010BD00001800002000127A0010
:101A700062000020640000200146114A12884A4397
:101A80004FF0E0235A6100229A611A46126942F02F
:101A900001021A6100BF4FF0E022106900F001025C
:101AA0001AB100F48032002AF5D04FF0E02212691A
:101AB00022F001024FF0E0231A6100229A61704780
:101AC000640000200146114A12784A434FF0E02397
:101AD0005A6100229A611A46126942F001021A61A3
:101AE00000BF4FF0E022106900F001021AB100F4CB
:101AF0008032002AF5D04FF0E022126922F0010274
:101B00004FF0E0231A6100229A61704762000020C2
:101B100038B5044664B120208DF8000028208DF8E7
:101B2000010030208DF8020038208DF8030004E019
:101B3000A32204216846FEF751FD6A46042140F6BF
:101B40009E2002F041FA01F02BFE38BD3EB504465E
:101B500002208DF80000CA208DF80100E3208DF8E6
:101B6000020009208DF803006A460421682002F073
:101B70002BFAA3208DF8000004F0400048B1C020EB
:101B80008DF80100C8208DF80200C2208DF80300F6
:101B900006E0A3208DF801008DF802008DF8030007
:101BA00004F4C07048B1C4208DF80400CC208DF836
:101BB0000500C6208DF8060006E0A3208DF804007D
:101BC0008DF805008DF80600A3208DF807008DF82C
:101BD00008008DF809006A460A2140F6A72002F0A5
:101BE000F3F904F0030018B120208DF8000002E0A2
:101BF000D8208DF800006A46012140F6B62002F098
:101C0000E3F904F0200018B1012000F0ADF802E083
:101C1000002000F0A9F804F4C07008B304F4807048
:101C200060B1B2208DF800008B208DF80100B62045
:101C30008DF802009B208DF803000BE0B0208DF89A
:101C4000000080208DF80100B4208DF80200902063
:101C50008DF803006A46042140F6A22002F0B4F990
:101C600004F0010020B3F8208DF800006A4601213D
:101C70004FF40B6002F0A8F9FA21072000F046FBB0
:101C8000072000F00DFB012000F02DFB642000F088
:101C90000DFC4FF4FA7000F01CFCC821304800F035
:101CA000BDFA282000F0D6FA0A2000F0E6FA08E093
:101CB000D8208DF800006A4601214FF40B6002F035
:101CC00083F904F0020018B1D9208DF8000002E079
:101CD000D8208DF800006A46012140F23D7002F0E4
:101CE00073F904F0040018B1012000F069F802E073
:101CF000002000F065F804F0100018B10120FFF793
:101D000007FF02E00020FFF703FF44F00800154939
:101D1000488101F045FD00201249887304F040001D
:101D200018B10846807B801D887304F4C07020B110
:101D30000C48807B801D0B49887304F0140020B18F
:101D40000848807B10300749887304F0030020B1F5
:101D50000448807B001D0349887300203EBD0000BD
:101D600009E3CA023C1900203EB504466CB10EA13D
:101D7000D1E900208968CDE9002002916A46092155
:101D80004FF4976002F020F93EBD0AA2D2E900109C
:101D90009268CDE9010200916A4609214FF49760EB
:101DA00002F012F9F0E70000B8AAB38DB4980D352F
:101DB0005D000000B8AAAAAAB088C3C5C700000089
:101DC00038B5044664B1C0208DF80000C2208DF8FB
:101DD0000100C4208DF80200C6208DF8030004E045
:101DE0008B2204216846FEF7F9FB6A46042140F67F
:101DF000982002F0E9F801F0D3FC38BD10B5C823F3
:101E00004FF48062024940F6F63001F0BDFB10BD90
:101E1000A063000870B588B0064601A801F008FA72
:101E2000BDF804000021C90341EA5045C4034448F9
:101E3000007A00F0030056F8200005904048007A30
:101E400000F0040010B10598404205903C48007A2B
:101E5000C0F3C10056F8200006903948007A00F01F
:101E6000200010B10698404206903548007AC0F331
:101E7000811056F8200007903148008900F48070E6
:101E800010B10798404207900598C117A0FB0423A2
:101E900001FB043100FB0510810041EA92700590BE
:101EA0000698C117A0FB042301FB043100FB0510B9
:101EB000810041EA927006900798C117A0FB0423A5
:101EC00001FB043100FB0510810041EA927007908C
:101ED0000598000E8DF808000598000C8DF8090093
:101EE0000598000A8DF80A000598C0B28DF80B001D
:101EF0000698000E8DF80C000698000C8DF80D0069
:101F00000698000A8DF80E000698C0B28DF80F00F2
:101F10000798000E8DF810000798000C8DF811003E
:101F20000798000A8DF812000798C0B28DF81300C8
:101F300002AA0C214FF4257002F046F808B070BDDB
:101F40003C19002030B585B0044616A207CA02AB82
:101F500007C3C82C03DD4FF0FF3005B030BDC820EB
:101F600090FBF4F0401E85B2280A8DF80000E8B21C
:101F70008DF801006A46022140F2162002F024F892
:101F800010B14FF0FF30E8E702AA0C2140F6C12063
:101F900002F01AF810B14FF0FF30DEE704488481F8
:101FA0000020DAE7FEF2ABC4AAF1DFDFBBAFDFDF70
:101FB0003C1900201FB504464848007A00F0030091
:101FC00054F8200001904548007A00F0040010B158
:101FD0000198404201904148007AC0F3C10054F892
:101FE000200002903D48007A00F0200010B10298D5
:101FF000404202903948007AC0F3811054F8200022
:1020000003903648008900F4807010B10398404274
:1020100003903349019880FB0101800F40EA810061
:1020200001902F49029880FB0110820042EA9170D2
:1020300002902B49039880FB0110820042EA9170C4
:1020400003900198000E8DF800000198000C8DF8A7
:1020500001000198000A8DF802000198C0B28DF8C5
:1020600003006A4604214FF4747001F0ADFF18B10B
:102070004FF0FF3004B010BD0298000E8DF8000044
:102080000298000C8DF801000298000A8DF80200F9
:102090000298C0B28DF803006A4604214FF47570AF
:1020A00001F092FF10B14FF0FF30E3E70398000E0C
:1020B0008DF800000398000C8DF801000398000AC9
:1020C0008DF802000398C0B28DF803006A4604211F
:1020D0004FF4767001F078FFCCE700003C19002047
:1020E00009E3CA0210B586B0044647A00068039011
:1020F00046A00068029046A00068019045A00068D4
:10210000009004F0030003A9085C8DF8140003A8F4
:10211000C4F3C101405C8DF8150003A8C4F381111C
:10212000405C8DF8160004F0030002A9085C8DF8ED
:10213000100002A8C4F3C101405C8DF8110002A890
:10214000C4F38111405C8DF8120005AA032140F20E
:10215000264001F039FF18B14FF0FF3006B010BD36
:1021600004AA032140F22A4001F02EFF10B14FF0E3
:10217000FF30F3E7019805900098049004F0040004
:1021800058B19DF8140040F001008DF814009DF83E
:10219000100040F001008DF8100004F0200058B14C
:1021A0009DF8150040F001008DF815009DF8110014
:1021B00040F001008DF8110004F4807058B19DF8D2
:1021C000160040F001008DF816009DF8120040F056
:1021D00001008DF8120005AA03214FF4886001F078
:1021E000F3FE10B14FF0FF30B8E704AA032140F22C
:1021F000314001F0E9FE10B14FF0FF30AEE7064884
:1022000004810020AAE700004CCD6C000CC92C0012
:1022100036567600264666003C190020F8B505467D
:102220000E464FF47A7095FBF0F000FB06F4200E9A
:102230008DF80000200C8DF80100200A8DF80200B6
:10224000E0B28DF803006A4604214FF4AE7001F04D
:10225000BBFEF8BD38B50446052094FBF0F084B20F
:1022600020128DF80000E0B28DF801006A460221CC
:102270004FF4AD7001F0A8FE38BD38B50446052016
:1022800094FBF0F084B220128DF80000E0B28DF8DB
:1022900001006A4602214FF4AC7001F095FE38BD92
:1022A00038B504460020009004F0010020B19DF8EC
:1022B000000040F03000009004F0020020B19DF8D2
:1022C000000040F00C00009004F0040020B19DF8E4
:1022D000000040F0030000906A4601214FF4A47012
:1022E00001F072FE38BD38B50446012C01DA012434
:1022F00002E0042C00DD0424601EC0B200906A4697
:10230000012140F24F1001F05FFE38BD2DE9FC477E
:1023100006460F4606F0070010B1B7F5C86F03DD9B
:102320004FF0FF30BDE8FC87384603F055FD81468D
:10233000594903F007FC8046684600F053FF9DF8BA
:102340000000022806D0042816D0082826D010281D
:1023500048D135E04FF08D41404603F085FD814680
:1023600003F002FD84B24D49404603F07DFD8146F5
:1023700003F0FAFC85B238E04FF08C41404603F0A0
:1023800073FD814603F0F0FC84B24549404603F0FA
:102390006BFD814603F0E8FC85B226E04FF08B41EF
:1023A000404603F061FD814603F0DEFC84B23D4906
:1023B000404603F059FD814603F0D6FC85B214E097
:1023C0004FF08A41404603F04FFD814603F0CCFCBC
:1023D00084B23549404603F047FD814603F0C4FC12
:1023E00085B202E04FF0FF309CE700BF20128DF86D
:1023F0000400E0B28DF8050028128DF80600E8B25E
:102400008DF8070006F00100A0B101AA02214FF4E7
:10241000EA7001F0D9FD10B14FF0FF3082E70DF105
:10242000060202214FF4927001F0CEFD10B14FF080
:10243000FF3077E706F00200A0B101AA02214FF4B5
:10244000EC7001F0C1FD10B14FF0FF306AE70DF103
:10245000060202214FF4947001F0B6FD10B14FF066
:10246000FF305FE706F00400A0B101AA02214FF49B
:10247000EE7001F0A9FD10B14FF0FF3052E70DF101
:10248000060202214FF4967001F09EFD10B14FF04C
:10249000FF3047E7002045E7000048430000404682
:1024A0000000C045000040450000C04438B5044667
:1024B000052094FBF0F085B228128DF80000E8B2F8
:1024C0008DF801006A4602214FF4EF7001F07CFDA7
:1024D00038BD38B50446052094FBF0F085B22812CB
:1024E0008DF80000E8B28DF801006A4602214FF431
:1024F000ED7001F069FD38BD00BF054A128802F099
:102500004002002AF9D0C2B2014B1B1D1A8070474D
:10251000003801407CB5054628494968087801AB78
:1025200004220D21FEF7B1FD08B107207CBD9DF806
:102530000700C0F301109DF8041001F0E00140EA2B
:10254000E1008DF800009DF80700C0F381009DF8C0
:10255000051001F0E00140EAE1008DF801009DF86E
:10256000070000F003009DF8061001F0E00140EACA
:10257000E1008DF8020000241CE01DF8040018B9E9
:10258000002045F8240013E00D4845F8240006E03B
:1025900055F824000B4903F067FC45F824001DF8AA
:1025A0000400401EC0B20DF804000028F0D100BFA6
:1025B000601CC4B2032CE0DB0020B7E72C00002035
:1025C0007B14AE3E1D5A843F2DE9F04F87B005467F
:1025D0000C46914601208DF8100000208DF8110066
:1025E000FE4A1268917CFD4A5268107804AB0222C0
:1025F000FEF7F1FD20B14FF0FF3007B0BDE8F08FDE
:10260000C820FFF739FA00208DF81000F34A12684D
:10261000D17BF24A5268107804AB0122FEF7DBFD51
:1026200010B14FF0FF30E8E7EC4A12685179EB4AFD
:102630005268107804AB0122FEF7CDFD10B14FF0C7
:10264000FF30DAE7E54A1268917CE44A5268107874
:1026500004AB0122FEF7BFFD10B14FF0FF30CCE715
:10266000DE4A1268D17DDD4A5268107804AB01223F
:10267000FEF7B1FD10B14FF0FF30BEE7D74A126848
:102680001179D64A5268107804AB0122FEF7A3FDF7
:1026900010B14FF0FF30B0E70C208DF81000CF4A9A
:1026A00012681179CD4A5268107804AB0122FEF706
:1026B00092FD10B14FF0FF309FE70F20FFF7DCF9DC
:1026C000C648806A407A8DF81000C44A1268917832
:1026D000C24A5268107804AB0122FEF77CFD10B1AB
:1026E0004FF0FF3089E7BD48806A007A8DF810000E
:1026F000BA4A12685178B94A5268107804AB01227C
:10270000FEF769FD10B14FF0FF3076E7B9F1000F29
:1027100007D0B248806A807A40F0E0008DF810005F
:1027200004E0AE48806A807A8DF81000AB4A1268E7
:102730009179AA4A5268107804AB0122FEF74BFD4A
:1027400010B14FF0FF3058E7B9F1000F07D0A348A0
:10275000806AC07A40F0E0008DF8100003E0A048E5
:10276000C07A8DF810009D4A1268D1799B4A526850
:10277000107804AB0122FEF72EFD10B14FF0FF30B0
:102780003BE7B9F1000F02D0C820FFF775F94020F0
:102790008DF81000914A12681179904A52681078A9
:1027A00004AB0122FEF717FD10B14FF0FF3024E714
:1027B00078208DF81000894A12685179874A52684A
:1027C000107804AB0122FEF706FD10B14FF0FF3088
:1027D00013E783498889FFF74FF900208DF810002F
:1027E0007E4A126851797D4A5268107804AB012202
:1027F000FEF7F1FC10B14FF0FF30FEE6774A1268A9
:10280000917A764A5268107804AB0222FEF73DFCBA
:1028100010B14FF0FF30F0E69DF811009DF8101058
:1028200040EA012B0C209BFBF0F0C6B20020A86010
:1028300068602860A06060602060824665E0674A4A
:102840001268D17A654A5268107804AB0C22FEF700
:102850001CFC10B14FF0FF30CFE69DF811009DF841
:10286000101040EA012000B2ADF808009DF81300F6
:102870009DF8121040EA012000B2ADF80A009DF860
:1028800015009DF8141040EA012000B2ADF80C00CC
:10289000BDF90810206808442060BDF90A1060687E
:1028A00008446060BDF90C10A0680844A0609DF861
:1028B00017009DF8161040EA012000B2ADF80000A4
:1028C0009DF819009DF8181040EA012000B2ADF8FB
:1028D00002009DF81B009DF81A1040EA012000B28A
:1028E000ADF80400BDF90010286808442860BDF95F
:1028F0000210686808446860BDF90410A8680844BC
:10290000A8600AF1010000F0FF0AB24597DB3448E5
:10291000D0F800C02868C117090441EA1041070433
:10292000624600233846FDF780FC32460023CDE99D
:102930000201FDF77AFC28602948D0F800C06868D9
:10294000C117090441EA10410704624600233846D2
:10295000FDF76BFC32460023CDE90201FDF765FC73
:1029600068601F48D0F800C0A868C117090441EA90
:1029700010410704624600233846FDF756FC3246F4
:102980000023CDE90201FDF750FCA8601448D0F8FF
:1029900004C02168C817000440EA11480F046246C9
:1029A000002338464146FDF740FC32460023CDE97E
:1029B0000201FDF73AFC20600948D0F804C06068C5
:1029C000C117090441EA1041070462460023384652
:1029D000FDF72BFC3246002304E000002C00002011
:1029E00078630008CDE90201FDF71FFC6060114823
:1029F000D0F804C0A068C117090441EA10410704D7
:102A0000624600233846FDF710FC32460023CDE92C
:102A10000201FDF70AFCA060A068002804DDA068A0
:102A2000A0F58030A06003E0A06800F58030A060D1
:102A30000020E2E5786300082DE9FC5F06460F46BA
:102A400000253D494968087801AB03220D21FEF7B6
:102A50001CFB10B10720BDE8FC9F9DF8040000F0AE
:102A60001F008DF804009DF8050000F01F008DF890
:102A700005009DF8060000F01F008DF806000024F8
:102A800056E056F8240057F82410A0EB010BBBF1D8
:102A9000000F01DB594601E0CBF10001084603F0CD
:102AA00083F94FF08F41009003F04CF8814601A864
:102AB000005D68B32149086803F08EF983465946E2
:102AC0001F4803F03FF8804604E01E49404603F0EB
:102AD000CBF9804601A8005D401EC0B201A908558F
:102AE0000028F2D14146484603F02CF883464FF0C7
:102AF0007E5103F0B7FA82462AF0004B0F488169F5
:102B0000584603F07DFA12D20120A04005430EE0A2
:102B10000A480169484603F073F905D3074841693B
:102B2000484603F06DFA02D20120A0400543641C20
:102B3000032CA6DB28468EE72C00002078630008D3
:102B400000B04C4554E3853F10B50446204600F0E4
:102B50000FF80346E01C00F00BF843EAC00083B214
:102B6000A01D00F005F843EA801083B2184610BD9E
:102B7000014691F90020002A01DD00201EE091F9B4
:102B80000020002A01DA042018E091F90120002A2F
:102B900001DD012012E091F90120002A01DA05206F
:102BA0000CE091F90220002A01DD022006E091F9F3
:102BB0000220002A01DA062000E00720704700000A
:102BC0008EB00021069107914FF4A060FEF76EFBD6
:102BD0004FF4965001F0CEFAFEF72CFFFDF7CCFF34
:102BE000FEF7D4F900BF00F0ADFA0028FBD11021A8
:102BF0008848FDF7B6FF0CE187480088C00B002825
:102C00007ED085480088C0F30D00032879DD824816
:102C100001788248FEF7E0FB002872D07F484078B8
:102C20007E49097840EA0120B0F5407F69D17B48B0
:102C30008078032865D1FEF77DFD794879497A4A85
:102C40007A4BCDE900210290794A7A497A4800F01E
:102C500043F93220FEF710FF7849B1F9001049001E
:102C600042F2107201FB02F0C11700EB5141C9138F
:102C700009B2724A11807249B1F90010490042F25A
:102C8000107201FB02F0C11700EB5141C91309B2E8
:102C90006B4A11806B49B1F90010490042F2107281
:102CA00001FB02F0C11700EB5141C91309B2654A9B
:102CB00011805D49B1F90010490042F2107201FB28
:102CC00002F0C11700EB5141C91309B2564A1180F5
:102CD0005449B1F90010490042F2107201FB02F0B0
:102CE000C11700EB5141C91309B24E4A11804C493A
:102CF000B1F90010490042F2107201FB02F001E04C
:102D000022E01EE0C11700EB5141C91309B2444A49
:102D1000118010464349444B4A4ACDE900104849C6
:102D20004648FDF7F6FD08213A48FDF711FFC0F1CE
:102D30000100C4B2224608213648FDF716FFFEF70F
:102D4000F3FC002034490880FDF7A0FF0BAA0CA972
:102D50000DA8FDF74BFF08AA09A90AA8FDF76EFF09
:102D6000BDF934003349344A128821F81200BDF904
:102D700030002F49304A128821F81200BDF92C008A
:102D80002A492D4A128821F812002B480088B8B928
:102D9000BDF9340029490880BDF930002849088070
:102DA000BDF92C0027490880BDF934002649088068
:102DB000BDF9300025490880BDF92C002449088060
:102DC00023482249204A1F4BCDE90132CDE90310A7
:102DD0001B481A4B0BAA0CA900900DA800F0EEF8A6
:102DE00015480088401C1449088008460088B0F542
:102DF0007A7F0EDD10210748FDF7AAFEC0F1010021
:102E0000C4B2224610210348FDF7AFFE00200A4954
:102E10000880F1E6000801406C0000204C190020F9
:102E20000600002004000020020000206C11002099
:102E30009C090020CC010020000000200800002098
:102E40000A0000200C0000200E00002010000020CE
:102E5000120000202DE9F0418EB007468846144646
:102E6000202101A8FDF7C2FB03208DF804000020FB
:102E70008DF80500FF208DF8060004F10800C0B2AF
:102E80008DF807008DF8087000208DF809000025E6
:102E900006E018F80510A81D01AA1154681CC5B257
:102EA000A542F6DBA11D01A8FDF786FE06463112FC
:102EB00001AAA01D1154E01D1654002505E001A92A
:102EC000485D01F0BDF9681CC5B204F109008542F6
:102ED000F5DB0EB0BDE8F0812DE9F0470D46164652
:102EE0009946DDE909C8089F00220023002400213B
:102EF0000CE035F911A0524436F911A0534439F9C8
:102F000011A0544401F1010A1FFA8AF1B0F800A09F
:102F10008A45EEDCDFF88CA0BAF900A0A2EB0A0229
:102F2000DFF884A0BAF900A0A3EB0A03DFF87CA0C5
:102F3000BAF900A0A4EB0A04DFF874A0BAF900A063
:102F4000A2EB0A02DFF86CA0BAF900A0A3EB0A0317
:102F5000DFF864A0BAF900A0A4EB0A04B0F800A05E
:102F6000AAF1020AA0F800A0B0F800A092FBFAFAB9
:102F70000FFA8AFAA7F800A0B0F800A093FBFAFABB
:102F80000FFA8AFAACF800A0B0F800A094FBFAFAA5
:102F90000FFA8AFAA8F800A04FF0000AA0F800A0E3
:102FA000BDE8F087080000200A0000200C00002087
:102FB0000E00002010000020120000202DE9F04F2C
:102FC000044609AD95E8E010DDF83480B4F900B0AE
:102FD000BBF1000F01DBDE4601E0CBF1000E7046D5
:102FE000B3F900B0BBF1000F01DBDE4601E0CBF12D
:102FF000000EF146B7F900B0BBF1000F01DBDE4671
:1030000001E0CBF1000EF246484504DDB4F800B013
:10301000A3F800B005E0504503DAB4F800B0A7F813
:1030200000B0B1F900B0BBF1000F01DBDE4601E0FA
:10303000CBF1000E7046B5F900B0BBF1000F01DB1B
:10304000DE4601E0CBF1000EF146BCF900B0BBF169
:10305000000F01DBDE4601E0CBF1000EF2464845F1
:1030600004DDB1F800B0A5F800B005E0504503DA82
:10307000B1F800B0ACF800B0B2F900B0BBF1000F8D
:1030800001DBDE4601E0CBF1000E7046B6F900B080
:10309000BBF1000F01DBDE4601E0CBF1000EF14693
:1030A000B8F900B0BBF1000F01DBDE4601E0CBF167
:1030B000000EF246484504DDB2F800B0A6F800B0B4
:1030C00005E0504503DAB2F800B0A8F800B0BDE85A
:1030D000F08F000070B50446002624F00104184863
:1030E00090F8240008B1002070BD1548807A10B90E
:1030F0004FF0FF30F8E71248057C807A20401049F5
:1031000008740846007CA04202D04FF0FF3600E071
:10311000002614B90A48007D18B1012000F0E2FF32
:1031200002E0002000F0DEFF3CB100F039FB20B1EE
:10313000034805744FF0FF30D6E73046D4E700006F
:103140002C00002070B50024FDF700FE00F024F9EB
:10315000002840D1782000F0CFFEC4B20CB101208D
:1031600070BD7820FFF7B6FFC4B20CB10220F7E7BC
:10317000642000F073FEC4B20CB10320F0E7FEF748
:103180003DFEC4B20CB10420EAE71548FFF7DCFCB1
:103190000546FEF7A7FFC4B20CB10520E0E740F2F8
:1031A0007310FEF7D3FCC4B20CB10620D8E764203C
:1031B000FEF7C8FEC4B20CB10720D1E700F047FF0C
:1031C00004460CB10820CBE7012000F043FDC4B257
:1031D0001CB10920C4E70A20C2E70020C0E70000B4
:1031E0005800002001461148407A30B1012807D02C
:1031F000022808D003280CD108E0022008700BE058
:103200000420087008E00820087005E0102008700D
:1032100002E04FF0FF30704700BF0448C07C18B197
:1032200008784006000E08700020F4E72C0000200B
:1032300001461348407A30B1012808D002280AD04C
:10324000032810D10BE04FF4804008800EE041F6D7
:103250009C7008800AE04FF48050088006E04FF42C
:103260000060088002E04FF0FF30704700BF044864
:10327000C07C10B10888401008800020F5E70000ED
:103280002C00002001460248007C08700020704796
:103290002C00002001460F48007A30B1012807D0E9
:1032A000022809D003280FD10AE0FA2008800EE096
:1032B0004FF4FA7008800AE04FF47A70088006E054
:1032C0004FF4FA60088002E00020088000BF00BFD1
:1032D000002070472C00002001460E48007A30B1D3
:1032E000012807D0022808D003280CD108E00A489A
:1032F00008600BE00948086008E00948086005E03C
:103300000848086002E04FF0FF30704700BF00201F
:10331000FBE700002C000020000003430000834274
:10332000333303423333834101461248C07A0828BD
:1033300017D2DFE800F01704070A0D101318BC209D
:10334000088013E06220088010E02A2008800DE049
:10335000142008800AE00A20088007E00520088081
:1033600004E000BF00BF0020088000BF00BF0020B5
:10337000704700002C0000200146064890F8240009
:1033800010B14FF0FF3070470248C089088000201C
:10339000F9E700002C0000201CB580208DF800000B
:1033A000654A1268917C644A526810786B46012223
:1033B000FDF711FF10B14FF0FF301CBD6420FEF788
:1033C0005BFB00208DF800005B4A1268917C5A4A32
:1033D000526810786B460122FDF7FDFE10B14FF0E8
:1033E000FF30EAE7544A1268917D534A52681078D8
:1033F0006B460622FDF749FE10B14FF0FF30DCE7C7
:103400009DF80500C007400F9DF8031001F0010171
:1034100040EA41009DF8011001F0010140EA010479
:1034200094B1012C03D101214348C17431E0022C35
:1034300003D100214048C1742BE021463FA0FCF796
:1034400019FF4FF0FF30B8E73B4A1268D1783A4A8B
:10345000526810786B460122FDF717FE10B14FF04D
:10346000FF30AAE79DF8000000F00F042CB93D489A
:10347000FCF700FF4FF0FF309FE7042C06D13AA085
:10348000FCF7F8FE01212C48C17402E000212A4813
:10349000C174FF2128488172FF2027490872FF214B
:1034A00025484172C1724FF6FF71C181FF2101743D
:1034B00081740121017380F82210002180F823100B
:1034C000417501751630016041608160163880F8E1
:1034D000241080F82510C1844FF4FA6000F002FC3B
:1034E00010B14FF0FF3068E7022000F0CBFA10B1C6
:1034F0004FF0FF3061E72A2000F06EFC10B14FF072
:10350000FF305AE7322000F0A9FC10B14FF0FF3035
:1035100053E70020FFF7DEFD10B14FF0FF304CE71E
:10352000002000F0F1FA10B14FF0FF3045E7002025
:1035300000F0E2FC002040E72C000020556E73757F
:1035400070706F7274656420736F667477617265F2
:103550002070726F64756374207265762025642E06
:103560000A000000D06F000848616C662073656E29
:103570007369746976697479207061727420666FFA
:10358000756E642E0A0000002DE9F04385B00546F3
:103590000E4690469946294890F8250020B14FF0F4
:1035A000FF3005B0BDE8F08316B94FF0FF30F8E703
:1035B000002423E0281B102801DD102000E0281B38
:1035C00087B232193946204600F0FEFC10B14FF0A8
:1035D000FF30E6E701AA3946204600F0A1F810B115
:1035E0004FF0FF30DDE730193A4601A9FCF7CAFF7A
:1035F00010B16FF00100D4E7E01984B2AC42D9DB1E
:103600004FEA28208DF8000008F0FF008DF8010037
:103610000A4A1268917E094A526810786B46022263
:10362000FDF7D9FD10B14FF0FF30BAE70121034893
:1036300080F82510A0F826900020B2E72C0000208A
:1036400038B50446282C02DD4FF0FF3038BDDCB918
:10365000002000F08BFB00208DF8000007208DF883
:1036600001002E4A1268917C2C4A526810786B46F1
:103670000222FDF7B0FD10B14FF0FF30E6E7002168
:10368000264801750020E1E7012000F06FFB2020B3
:103690008DF80000012C06D100208DF801000520D6
:1036A00000F09AFB17E0052C06DC01208DF80100E4
:1036B000052000F091FB0EE0142C06DC02208DF8B2
:1036C00001000A2000F088FB05E003208DF80100CE
:1036D000142000F081FB9DF80100072101EB801010
:1036E000C0B28DF801000D4A1268917C0B4A5268F5
:1036F00010786B460222FDF76EFD10B14FF0FF30DF
:10370000A4E7082105488172002101730121017598
:103710000020FFF7DFFC002098E700002C000020CD
:10372000F8B504460D46164616B94FF0FF30F8BD01
:103730001A48807A10B94FF0FF30F8E720128DF860
:103740000000E0B28DF801009DF801002844134903
:1037500049684989884202DD4FF0FF30E7E70F4AA8
:103760001268117E0D4A526810786B460222FDF7EE
:1037700032FD10B14FF0FF30D9E7EAB2074B1B68BA
:10378000597D064B5B6818783346FDF77EFC10B117
:103790004FF0FF30CBE70020C9E700002C000020ED
:1037A00008B57048807A10B94FF0FF3008BD00208E
:1037B00000906C4A1268D17B6A4A526810786B4656
:1037C0000122FDF708FD10B14FF0FF30EEE7654A2A
:1037D00012685179634A526810786B460122FDF7EE
:1037E000FAFC10B14FF0FF30E0E75E4A1268117941
:1037F0005C4A526810786B460122FDF7ECFC10B170
:103800004FF0FF30D2E7574890F82400002853D0FB
:103810000C200090534A12681179524A526810786D
:103820006B460122FDF7D7FC10B14FF0FF30BDE72A
:103830003220FEF721F9C02000904A48807A00F03B
:10384000010020B19DF8000040F020000090454AA2
:1038500012681179434A526810786B460122FDF7CD
:10386000BAFC10B14FF0FF30A0E73E48407C10B1E9
:103870000220009001E0002000903A4A1268D17BBB
:10388000384A526810786B460122FDF7A4FC10B14B
:103890004FF0FF308AE700200090324A12685179D9
:1038A000304A526810786B460122FDF794FC0028DC
:1038B00055D04FF0FF3079E704200090294A126874
:1038C0001179284A526810786B460122FDF783FC73
:1038D00010B14FF0FF3069E72248807C20B92148C1
:1038E000807A00F0010010B94020009001E06020D3
:1038F00000901C4A126811791A4A526810786B4677
:103900000122FDF768FC10B14FF0FF304EE7322086
:10391000FEF7B2F81348407C10B10120009001E09E
:10392000002000900F4A1268D17B0E4A526810782E
:103930006B460122FDF74FFC10B14FF0FF3035E729
:10394000084A12685179074A52681078054B1033BB
:103950000122FDF740FC10B14FF0FF3026E70020B8
:1039600024E700002C0000202DE9F04F8DB08346A5
:103970000F4602200C90424890F8240020B100200D
:1039800000F068F9012600E0002603A8FFF782FC9A
:1039900005A8FFF727FC01A8FFF7C6FC02A8FFF760
:1039A000EBFC374890F80AA004A8FFF76BFC002452
:1039B00007E0002239465846FEF706FE00B902E04D
:1039C000641C022CF5DB00BF022C01D1002528E08D
:1039D000002407E0012206A909A8FEF7F5FD00B9B9
:1039E00002E0641C022CF5DB00BF022C01D1002593
:1039F00017E006A93846FDF7C9FF00F0FF0809A93E
:103A00005846FFF719F800F0FF090025B9F1000F3B
:103A100001D145F00105B8F1000F01D145F00205D3
:103A200000BFFF2016490872FF2115484172C1727C
:103A30004FF6FF71C181FF21817201740121017371
:103A4000BDF80C0000F04EF99DF8140000F01AF8D3
:103A5000BDF8040000F0C0F9BDF8080000F0FEF960
:103A6000504600F049FA9DF81000FFF733FB16B1FD
:103A7000012000F0EFF828460DB0BDE8F08F0000FF
:103A80002C00002038B504461E48807A10B94FF04B
:103A9000FF3038BD022C06D0042C07D0082C08D0EB
:103AA000102C0CD108E0002000900BE008200090C2
:103AB00008E01020009005E01820009002E04FF090
:103AC000FF30E6E700BF0F48407A9DF80010B0EBEA
:103AD000E10F01D10020DCE70A4A1268D179094AD6
:103AE000526810786B460122FDF775FB10B14FF05C
:103AF000FF30CEE79DF80000C1100248417200205F
:103B0000C7E700002C00002038B504465048807CF0
:103B1000A04201D1002038BD002C46D04C4A12688A
:103B200011794B4A526810786B460122FDF7ADFAC5
:103B300010B14FF0FF30EEE79DF8000020F02000BC
:103B40000090434A12681179414A526810786B46D6
:103B50000122FDF740FB10B14FF0FF30DBE70320FF
:103B6000FDF78AFF02200090394890F8220020B12A
:103B70009DF8000040F080000090354890F8230048
:103B800020B19DF8000040F030000090304A1268EB
:103B9000117D2F4A526810786B460122FDF71BFBFE
:103BA000002851D04FF0FF30B5E7294A126811794B
:103BB000274A526810786B460122FDF766FA10B169
:103BC0004FF0FF30A7E72248807A00F0010028B1CB
:103BD0009DF8000040F02000009004E09DF80000F7
:103BE00020F0200000901A4A12681179184A526891
:103BF00010786B460122FDF7EEFA10B14FF0FF305E
:103C000089E70320FDF738FF114890F8220010B132
:103C10008020009001E0002000900D4890F82300E3
:103C200020B19DF8000040F030000090084A126872
:103C3000117D074A526810786B460122FDF7CBFAD6
:103C400010B14FF0FF3066E701488474002062E74E
:103C50002C00002038B50446214890F82400A042EA
:103C600001D1002038BD24B31D4890F8250010B9BB
:103C70004FF0FF30F6E7002000F034FA0020FFF7A5
:103C800043FF1749C88C00F0E9F800200090144960
:103C9000496808786B4601222321FDF79CFA01212F
:103CA0000F4880F82410012000F01CFAFFF778FD7F
:103CB00013E0002000F016FA0948007C0090084943
:103CC000496808786B4601222321FDF784FA002118
:103CD000034880F82410FFF763FD0020C2E70000CE
:103CE0002C00002038B504461F48807A10B94FF0E8
:103CF000FF3038BDFA2C09D0B4F5FA7F09D0B4F5FD
:103D00007A7F09D0B4F5FA6F0CD108E0002000905A
:103D10000BE00820009008E01020009005E018203B
:103D2000009002E04FF0FF30E3E700BF0E48007A5A
:103D30009DF80010B0EBE10F01D10020D9E70A4A4D
:103D400012689179084A526810786B460122FDF793
:103D500042FA10B14FF0FF30CBE79DF80000C010E1
:103D6000014908720020C4E72C00002038B5044641
:103D7000184890F82300A04201D1002038BD14B1AA
:103D80003020009001E0002000901248807C20B19B
:103D90009DF8000040F0020000900E4890F82200CC
:103DA00020B19DF8000040F080000090094A1268A0
:103DB000117D084A526810786B460122FDF70BFA14
:103DC00010B14FF0FF30D9E7024880F823400020BF
:103DD000D4E700002C00002038B504461E48807A45
:103DE00010B94FF0FF3038BDBC2C02DB0120009031
:103DF00015E0622C02DB0220009010E02A2C02DB8E
:103E0000032000900BE0142C02DB0420009006E05D
:103E10000A2C02DB0520009001E0062000900E48ED
:103E2000C07A9DF80010884201D10020DBE70A4AE1
:103E300012689178084A526810786B460122FDF7A3
:103E4000CAF910B14FF0FF30CDE79DF800100248DD
:103E5000C1720020C7E700002C00002038B50446DE
:103E60002448807A10B94FF0FF3038BD214890F8CF
:103E7000240010B14FF0FF30F7E71E48007D50B12D
:103E800034B1282C04DCE0B2FFF7DAFB0020ECE7C9
:103E90000020FFF7D5FB042C01DA042404E0B4F57C
:103EA0007A7F01DD4FF47A744FF47A7090FBF4F06E
:103EB000401EC0B200900F4A126851780D4A5268F5
:103EC00010786B460122FDF786F910B14FF0FF30F4
:103ED000CBE79DF80000401C4FF47A7191FBF0F0A5
:103EE00081B20448C1810146C9894810FFF774FFB7
:103EF0000020BAE72C00002038B5044604F070001A
:103F000010B10120009005E014B10020009001E004
:103F1000402000902B4A1268917C2A4A52681078FF
:103F20006B460122FDF757F920B100212548817227
:103F3000481E38BD9DF8000020F040012148017363
:103F40000020009004F0400020B99DF8000040F0EF
:103F50000400009004F0200020B99DF8000040F01B
:103F60000200009004F0100020B99DF8000040F01D
:103F70000100009004F0080020B99DF8000040F016
:103F8000380000900F4A1268D17C0E4A52681078AF
:103F90006B460122FDF71FF920B10021094881720B
:103FA000481EC6E724B1082C02D00020FFF7DEFE31
:103FB00004488472002101753220FDF75DFD002068
:103FC000B7E700002C000020F8B504460D46164661
:103FD00016B94FF0FF30F8BD1A48807A10B94FF08B
:103FE000FF30F8E720128DF80000E0B28DF80100F4
:103FF0009DF801002844134949684989884202DD37
:104000004FF0FF30E7E70F4A1268117E0D4A526801
:1040100010786B460222FDF7DEF810B14FF0FF304A
:10402000D9E7EAB2074B1B68597D064B5B681878E5
:104030003346FDF7D0F810B14FF0FF30CBE700204A
:10404000C9E700002C00002001460868704770B5E1
:1040500088B002A905A8FFF787FC0446032C3ED1CF
:1040600001A8FFF739F9059801F09EFE064601996F
:1040700001F0FAFE054601F05BFE0590069801F09E
:1040800093FE0646019901F0EFFE054601F050FE51
:104090000690079801F088FE0646019901F0E4FEBB
:1040A000054601F045FE079005A8FDF783FF684629
:1040B000FFF7BEF8BDF80010029848430290BDF823
:1040C0000010039848430390BDF80010049848433B
:1040D000049002A8FDF79EFE002008B070BD0120EC
:1040E000FBE7000038B50446214890F82400C0B131
:1040F00014B10220009001E0002000901C4A1268D8
:10410000D17B1B4A526810786B460122FDF763F899
:1041100010B14FF0FF3038BD9DF8001014484174C5
:1041200023E01348807A10B94FF0FF30F3E724B151
:104130000F48407C08B10020EDE714B10120009049
:1041400001E0002000900A4A1268D17B084A5268B8
:1041500010786B460122FDF73EF810B14FF0FF30AA
:10416000D9E79DF80010024841740020D3E7000011
:104170002C00002010B586B00446012144F2040052
:10418000FDF7B0F84FF48070ADF8140003208DF8FF
:10419000160010208DF8170005A92748FCF705FC2C
:1041A0004FF40070ADF8140003208DF816001820AD
:1041B0008DF8170005A92048FCF7F7FB4FF4806045
:1041C000ADF8140004208DF8170005A91A48FCF773
:1041D000ECFB25208DF8000003208DF801008DF800
:1041E000020001208DF803006846FDF727F80194CE
:1041F0000020ADF80800ADF80A00ADF80C00ADF8ED
:1042000010000C20ADF80E0001A90C48FDF73CFB96
:10421000012240F225510948FDF711FB012240F22D
:1042200024410648FDF70BFB01210448FDF7C4FAC1
:10423000FDF77AFA06B010BD0008014000380140D1
:1042400010B5044600BF40210448FDF7C1FA00281C
:10425000F9D021460148FDF788FB10BD0038014028
:1042600030B595B0054613AB12AA09A9284600F04F
:1042700039FA044614B1204615B030BD0020149020
:1042800026E0224909689DF8502001EBC20113ABDA
:1042900011AA486801A900F025FA04460CB120468D
:1042A000EAE709A901A800F0BBFC60B99DF8440049
:1042B0009DF84810884201DD0220DDE79DF850009E
:1042C000124988750AE09DF85000401CC0B2149055
:1042D0000E48007D9DF850108842D2DC00BF0B488C
:1042E000007D9DF85010884201D10420C4E714A934
:1042F000284600F0D7FA04460CB12046BCE79DF8EA
:104300005000024948750020B6E70000D8000020A0
:104310002DE9F0419AB09C48847D007DA04202DCEA
:104320001AB0BDE8F0819849096801EBC40106ABF9
:1043300007AA486808A900F0D5F908A993A0FBF7D7
:1043400099FF002644E09048008B0121B1400840CD
:10435000D8B122218FA0FBF78DFF304600F028FB5B
:1043600089492431471839468BA0FBF783FF222166
:1043700088A0FBF77FFF304600F01AFB824924310A
:10438000084410A941F8260018E0304600F010FB60
:104390007D492431085810A941F826007A48C07D8B
:1043A00030B910A850F826107CA0FBF763FF05E099
:1043B00010A850F826107AA0FBF75CFF9DF81C00AF
:1043C000401EB04202D078A0FBF754FF701CC6B26A
:1043D0009DF81C008642B6DB74A0FBF74BFF00F093
:1043E00039FB6948407D0B280DD2DFE800F0060D4F
:1043F000151E27323F4E5F7287006349096851F8E6
:1044000034008047054690E05F4A126852F8341045
:1044100010988847054688E05B4B1B6853F83420AA
:10442000DDE91001904705467FE0574F3F6857F898
:10443000343010A807C89847054676E0DFF848C131
:10444000DCF800C05CF8347010A80FC8B847054607
:104450006BE01498DFF830C10090DCF800C05CF825
:10446000347010A80FC8B84705465EE0DDE91401B6
:10447000DFF814C1CDE90001DCF800C05CF834704D
:1044800010A80FC8B84705464FE0DDE9141216988A
:10449000DFF8F4C0CDE900120290DCF800C05CF84F
:1044A000347010A80FC8B84705463EE0DDE9142374
:1044B000DDE91610DFF8D0C0CDE90023CDE9021008
:1044C000DCF800C05CF8347010A80FC8B847054687
:1044D0002BE0DDE91523DDE91710CDE90123CDE956
:1044E00003101498DFF8A0C00090DCF800C05CF85E
:1044F000347010A80FC8B847054616E0DDE916234A
:10450000DDE91810CDE90223CDE90410DDE914013D
:10451000DFF874C0CDE90001DCF800C05CF834704D
:1045200010A80FC8B847054600BF00BF00F050FAFA
:104530009DF8180001280CD11348C07D20B92946E8
:104540001BA0FBF797FE07E029461BA0FBF792FE96
:1045500002E018A0FBF78EFE0B4890F8EC0088B143
:104560000948D0F8F0000A21B0FBF1F201FB120774
:104570000548D0F8F000B0FBF1F83A46414611A0EA
:10458000FBF778FE00BFCBE6D80000200D0A2573AC
:10459000280000002563000025730000256C7500CD
:1045A00030582558000000002C00000029000000B1
:1045B0003D256C753B0D0A003D305825583B0D0AD2
:1045C0000000000046756E6374696F6E2052756E50
:1045D0002054696D653A25642E2531646D730D0A8A
:1045E00000000000F0B5034615460020002200261A
:1045F000002455E01F782C2F01D104B901221F7827
:10460000292F01D01F780FB904B94AE0002E34D108
:104610001F78302F02DB1F78392F11DD1F78612FB3
:1046200002DB1F78662F0BDD1F78412F02DB1F781E
:10463000462F05DD1F78582F02D01F78782F0CD118
:1046400002B12EE01F78612F03DB1F78203F0F702F
:1046500001E01F780F70491C1FE01F78222F04D142
:1046600002B11EE00126012417E01F78202F14D08C
:104670001F782C2F11D0FF2613E01F78222F00D196
:10468000002402B10DE044B11F785C2F02D15B1C05
:10469000471CF8B21F780F70491C471CF8B25B1C0E
:1046A000A8E700BF00270F702E70F0BD10B50446BC
:1046B000002010700BE020780870641C491C1078F2
:1046C000401C10701078984201DB012010BD20784A
:1046D000202802D020780028EDD10020087000BFEB
:1046E000F4E700002DE9FF4F85B08046894600279A
:1046F000002004900390012002904FF0000B002551
:1047000044461DE02078202816D005F07F000528BB
:1047100012DA0DB945F0800505F07F00042803D1B9
:1047200020782A2800D00EE0207805F07F010DF8CF
:104730000100681CC5B202E0852D00D103E0641CB5
:1047400020780028DED100BF8DB1002005F07F0168
:104750000DF8010051A1684600F062FA18B9002175
:104760000898017002E001210898017000254FF0BF
:10477000000A444614E0641C0AF1010000F0FF0A3C
:104780002078202802D020782A2809D1204600F05D
:10479000D7F90646282E03D02A2E01D0CDF810A036
:1047A0002078282802D020780028E4D144460498B4
:1047B00010B10498401C04444FF0000A002654E055
:1047C000207810B94FF0010A50E02078282803D152
:1047D00016B9781CC7B213E02078292808D13EB951
:1047E00017B1781EC7B201E04FF0010A47B93DE0AA
:1047F0002078222804D10EB9012000E000200646CE
:1048000047B9207820282FD0207889F8000009F1B6
:10481000010929E020782C2804D101200290681C8D
:10482000C5B214E02078202811D0207828280ED096
:104830004DB9BBF1050F06DA20780DF80B000BF12E
:10484000010000F0FF0B0298401CC0B20290012F43
:104850000AD10298022807D10298401CC0B20290E7
:104860000398401CC0B20390641CA9E700BF0398E2
:10487000012809D100200DF80B0008A1684600F0BE
:10488000CFF908B900200390079903980870002019
:1048900089F80000504609B0BDE8F08F766F696472
:1048A000000000002DE9F043B5B005460F46002496
:1048B000002604E000213D488155701CC6B20A2E36
:1048C000F8DB06E06D1C287818B9012035B0BDE88A
:1048D000F08328782828F5D16D1C61E034AA694658
:1048E0002846FFF77FFE064635449DF8D00020B1EC
:1048F000012827D0FF284CD149E09DF8000000B3E3
:1049000033A9684600F027F906460EB10220DDE71C
:10491000204600F04DF825490A31339A0A50A1F19A
:104920002400008B0121A140884320491A390883C3
:1049300004211E480155601CC4B20A2C01DD03206D
:10494000C4E726E0684600F087F9401C00F0FF0845
:10495000204600F02DF815490A3100EB01094946BF
:10496000684600F06EF911481A38018B0120A0400A
:10497000014388B20D491A3908830C4800F80480B5
:10498000601CC4B20A2C01DD03209FE701E0022075
:104990009CE700BF2878292801D0287800B900E0DA
:1049A0009CE700BF3C70002090E70000F200002070
:1049B00002460020002105E0044B5B5C0344D8B2B2
:1049C0004B1CD9B29142F7DB70470000F200002087
:1049D00010B501210D48FCF700FE012808D10C4854
:1049E000D0F8F0004FF6FF7108440949C1F8F00013
:1049F0000648FCF7EFFD0649D1F8F01008440449D9
:104A0000C1F8F0000846D0F8F00010BD00080040E2
:104A1000D800002010B5044604EBC40000EB0410DD
:104A20000122C2EB800081B24FF47A70FCF74EFE97
:104A300001200149C87510BDD800002010B50246FC
:104A4000012000E050430B00A1F10104E1B2F9D1D3
:104A500010BD000010B501210848FCF7A9FD4FF674
:104A6000FF710648FCF7DCFD00210448FCF7DAFD85
:104A700000200349C1F8F00010BD0000000800400C
:104A8000D800002070B51D48008800F400400028C0
:104A900033D01A48057800201949485519488168CB
:104AA0001748884704461CB91649C868804721E062
:104AB000134800F0DDF80546012D00D02C46CCB19E
:104AC000012C06D0022C08D0032C0AD0042C10D1C3
:104AD0000BE00DA0FBF7CEFB0BE00EA0FBF7CAFB33
:104AE00007E00FA0FBF7C6FB03E010A0FBF7C2FB3B
:104AF00000BF00BF00200149088070BD6C0000208D
:104B00004C190020D8000020BAAFCAFDB4EDCEF396
:104B1000210D0A00B2CECAFDB4EDCEF3210D0A007C
:104B2000B2CECAFDCCABB6E0210D0A00CEB4D5D2D0
:104B3000B5BDC6A5C5E4B5C4BAAFCAFD210D0A000E
:104B40000146491C00E0491C0878202801D10029B1
:104B5000F9D1087870472DE9F04307460E46002545
:104B60004FF00A083C46002030601FE020783928CA
:104B700002DC207830280ADA2078462802DC207807
:104B8000412804DA2078582809D1012D07D120784E
:104B9000412801DB4FF01008681CC5B205E0207801
:104BA00000B904E00120BDE8F083641CDEE700BF2B
:104BB0003C46B8F1100F0FD1032D01DA0220F2E7C5
:104BC0002078302806D16078582803D1A41CA81E6C
:104BD000C5B204E00320E6E70DB90420E3E71BE0DB
:104BE0000DB1681EC5B22078392806DC207830283F
:104BF00003DB2078A0F1300902E02078A0F137092A
:104C000029464046FFF71AFF316809FB0010306063
:104C1000641C207800B900E0E2E700BF0020C2E792
:104C200002460AE010780B78984201D001207047C4
:104C3000107800B902E0521C491CF3E700BF0020C5
:104C4000F5E706E002780A70027802B902E0401C3B
:104C5000491CF7E700BF70470146002005E00A78CD
:104C600002B903E0421CD0B2491CF8E700BF70470C
:104C700010B58CB004461E230BAA03A92046FFF7EB
:104C800015FD0090009810B101200CB010BD9DF8EA
:104C90002C00044400200B900EE040489DF82C208E
:104CA00050F8221003A8FFF7BBFF00B908E09DF8F9
:104CB0002C00401CC0B20B909DF82C000728ECD3B0
:104CC00000BF9DF82C00072863D2DFE800F0040540
:104CD0003C5E6564630000BF31A0FBF7CBFA31A0F6
:104CE000FBF7C8FA3FA0FBF7C5FA4EA0FBF7C2FAE4
:104CF0005CA0FBF7BFFA6BA0FBF7BCFA79A0FBF74F
:104D0000B9FA86A0FBF7B6FA8BA0FBF7B3FA90A02E
:104D1000FBF7B0FA94A0FBF7ADFA99A0FBF7AAFA5B
:104D20009EA0FBF7A7FAA4A0FBF7A4FAB0A0FBF79C
:104D3000A1FABDA0FBF79EFAC8A0FBF79BFAD4A08E
:104D4000FBF798FA9AE216A0FBF794FAE0A0FBF7BB
:104D500091FA00200B900EE0ED4800689DF82C20A1
:104D600000EBC2004168EBA0FBF784FA9DF82C0031
:104D7000401CC0B20B90E648007D9DF82C10884284
:104D8000EADC07A0FBF776FA78E205A0FBF772FAF7
:104D9000C4E171E245E219E2ECE100008400002088
:104DA0000D0A00002D2D2D2D2D2D2D2D2D2D2D2DD0
:104DB0002D2D2D2D2D2D2D2D2D2D2D2D55534D41A1
:104DC00052542056332E312D2D2D2D2D2D2D2D2DA0
:104DD0002D2D2D2D2D2D2D2D2D2D2D2D2D2D2D2010
:104DE0000D0A00002020202055534D415254CAC7BF
:104DF000D3C9414C49454E54454BBFAAB7A2B5C48F
:104E0000D2BBB8F6C1E9C7C9B5C4B4AEBFDAB5F70D
:104E1000CAD4BBA5BDBBD7E9BCFE2CCDA8B9FD202B
:104E20000D0A0000CBFC2CC4E3BFC9D2D4CDA8B975
:104E3000FDB4AEBFDAD6FACAD6B5F7D3C3B3CCD079
:104E4000F2C0EFC3E6B5C4C8CEBACEBAAFCAFD2C25
:104E5000B2A2D6B4D0D02ED2F2B4CB2CC4E3BFC908
:104E60000D0A0000D2D4CBE6D2E2B8FCB8C4BAAF87
:104E7000CAFDB5C4CAE4C8EBB2CECAFD28D6A7B3F2
:104E8000D6CAFDD7D62831302F3136BDF8D6C6293F
:104E9000A1A2D7D6B7FBB4AEA1A2BAAFCAFDC8EBE8
:104EA0000D0A0000BFDAB5D8D6B7B5C8D7F7CEAA75
:104EB000B2CECAFD292CB5A5B8F6BAAFCAFDD7EE59
:104EC000B6E0D6A7B3D63130B8F6CAE4C8EBB2CE56
:104ED000CAFD2CB2A2D6A7B3D6BAAFCAFDB7B520C9
:104EE0000D0A0000BBD8D6B5CFD4CABE2ED0C2D4CE
:104EF000F6B2CECAFDCFD4CABEBDF8D6C6C9E8D672
:104F0000C3B9A6C4DC2CD0C2D4F6BDF8D6C6D7AA85
:104F1000BBBBB9A6C4DC2E0D0A000000BCBCCAF5A0
:104F2000D6A7B3D63A7777772E6F70656E656476BD
:104F30002E636F6D0D0A000055534D415254D3D06E
:104F400037B8F6CFB5CDB3C3FCC1EE3A0D0A0000B9
:104F50003F3A202020202020BBF1C8A1B0EFD6FA94
:104F6000D0C5CFA20D0A000068656C703A202020E1
:104F7000BBF1C8A1B0EFD6FAD0C5CFA20D0A000090
:104F80006C6973743A202020BFC9D3C3B5C4BAAFCB
:104F9000CAFDC1D0B1ED0D0A0A00000069643A20D3
:104FA00020202020BFC9D3C3BAAFCAFDB5C449442D
:104FB000C1D0B1ED0D0A0A006865783A20202020A2
:104FC000B2CECAFD3136BDF8D6C6CFD4CABE2CBAD1
:104FD000F3B8FABFD5B8F12BCAFDD7D6BCB4D6B456
:104FE000D0D0BDF8D6C6D7AABBBB0D0A0A000000B8
:104FF0006465633A20202020B2CECAFD3130BDF86E
:10500000D6C6CFD4CABE2CBAF3B8FABFD5B8F12BE6
:10501000CAFDD7D6BCB4D6B4D0D0BDF8D6C6D7AAB0
:10502000BBBB0D0A0A00000072756E74696D653AAB
:10503000312CBFAAC6F4BAAFCAFDD4CBD0D0BCC6FF
:10504000CAB13B302CB9D8B1D5BAAFCAFDD4CBD098
:10505000D0BCC6CAB13B0D0A0A000000C7EBB0B411
:10506000D5D5B3CCD0F2B1E0D0B4B8F1CABDCAE462
:10507000C8EBBAAFCAFDC3FBBCB0B2CECAFDB2A288
:10508000D2D4BBD8B3B5BCFCBDE1CAF82E0D0A0022
:105090002D2D2D2D2D2D2D2D2D2D2D2D2D2D2D2D40
:1050A0002D2D2D2D2D2D2D2D2D2D414C49454E5481
:1050B000454B2D2D2D2D2D2D2D2D2D2D2D2D2D2DEA
:1050C0002D2D2D2D2D2D2D2D2D2D2D200D0A0000BA
:1050D0002D2D2D2D2D2D2D2D2D2D2D2D2D2D2D2D00
:1050E0002D2D2D2D2D2D2D2D2DBAAFCAFDC7E5B59A
:1050F000A52D2D2D2D2D2D2D2D2D2D2D2D2D2D2D68
:105100002D2D2D2D2D2D2D2D2D2D2D2D200D0A004C
:10511000D800002025730D0A0000000059A0FBF7FD
:10512000A9F800200B901AE0664909689DF82C2028
:1051300001EBC20101AB02AA486803A9FFF7D2FA4A
:10514000604800689DF82C1050F8312003A95EA03B
:10515000FBF790F89DF82C00401CC0B20B9059480A
:10516000007D9DF82C108842DEDCAFF2CC30FBF7DE
:1051700081F883E0AFF2D830FBF77CF80BAA03A9E3
:105180002046FFF72FFA9DF82C00C8B9694603A8FE
:10519000FFF7E1FC0B909DF82C0020B94FA000997F
:1051A000FBF768F80EE09DF82C00042801D00220DF
:1051B0006BE54DA0FBF75EF801204249C87501E0A0
:1051C000022062E547A0FBF755F857E045A0FBF742
:1051D00051F80BAA03A92046FFF704FA9DF82C000A
:1051E000C8B9694603A8FFF7B6FC0B909DF82C00E0
:1051F00020B942A00099FBF73DF80EE09DF82C0085
:10520000042801D0022040E53FA0FBF733F800203E
:105210002C49C87501E0022037E532A0FBF72AF8D7
:105220002CE030A0FBF726F80BAA03A92046FFF7D5
:10523000D9F99DF82C00C8B9694603A8FFF78BFC83
:105240000B909DF82C0078B91E49009881F8EC006D
:10525000084690F8EC0018B130A0FBF70BF807E017
:1052600035A0FBF707F803E002200EE502200CE56D
:105270001CA0FAF7FFFF01E0012006E500BF0020B7
:1052800003E500002D2D2D2D2D2D2D2D2D2D2D2D1A
:105290002D2D2D2D2D2D2D2D2D2D2D2D2DBAAFCA92
:1052A000FD204944202D2D2D2D2D2D2D2D2D2D2D45
:1052B0002D2D2D2D2D2D2D2D2D2D2D2D2D2D2D2D1E
:1052C000200D0A00D800002025732069642069732E
:1052D0003A0D0A3058253038580D0A004845583ADA
:1052E000305825580D0A00003136BDF8D6C6B2CE6A
:1052F000CAFDCFD4CABE210D0A0000004445433A7E
:10530000256C750D0A0000003130BDF8D6C6B2CE4E
:10531000CAFDCFD4CABE210D0A00000052756E200E
:1053200054696D652043616C63756C6174696F6E5F
:10533000204F4E0D0A00000052756E2054696D65B5
:105340002043616C63756C6174696F6E204F4646D3
:105350000D0A00000160704721F00042A2F1605286
:10536000B2F5801F01F0004328BFD2F17F6C0BD94A
:105370005FEA001C43EAC20242EB507018BF70475C
:1053800028BF20F001007047B2F5801FBCBF18464F
:1053900070474FEA410C1CF5001F02D2084600F08E
:1053A0002ABE70B500F021FA00000089FFF7F6BFB1
:1053B0004FF00040A0F580007047000010B591EA62
:1053C000030F48BF83F0004300F16C82841A71EB35
:1053D000030C05D2121943EB0C03001B61EB0C010B
:1053E000DFF824E14FEA1154A4EB135C1EEA430FEB
:1053F00018BF9EEA445F73D023EA0E03DCF1200E4F
:1054000021EA045143F4801332D322FA0CFE10EB4C
:105410000E0023FA0CFE41EB0E01CCF1200E03FA34
:105420000EFE10EB0E0051F10001B1F5801FCCF122
:10543000200E32D201EB045112FA0EF2BDE81040F8
:1054400058BF7047401C38BF5FEA420218BF704720
:10545000002814BF20F0010041F100014FEA410390
:1054600013F5001F38BF7047A1F1C04100F00BBA1F
:10547000012A43EB0302ACF1200CDCF11F0E32BF1A
:105480004FF0000E23FA0CF310EB030041EB045134
:10549000B4EB115FD0D0A1EB045101F580114908A4
:1054A0005FEA300001EB04510ED350F1000038BF29
:1054B00012FA0EFE08D1BDE81040C9E7401C38BF03
:1054C0005FEA4202CAD1C3E7BDE810404FEA410398
:1054D00013F5001F38BF7047A1F1C04100F0D3B9E8
:1054E0009EEA445F08D011EA5E0FBDE8104004BF99
:1054F00001F0004100207047BDE8104070B500F099
:1055000074F900BF64FBBE3E0000E0FF2DE9C0411E
:1055100030B4DFF8A0C23CEA111418BF3CEA1314FF
:1055200000F0EC8081EA03051CEA111444EAD5740A
:1055300018BF1CEA131500F0C780A4EB05044FF058
:10554000004545EAC12145EAC32341EA505143EAF7
:10555000525304F17F74994204F500344FEAC0209D
:105560004FEAC22208BF904200F09C804FEA1365C8
:105570000FF24016765D4FEA134506FB05F7C7F1BB
:10558000807706FB07F74FEAD737A7FB0368764219
:10559000C8F58038A7FB06CE38BFA8F1010807FB85
:1055A00008E64FF0000EA6FB028CE6FB03CEDCF112
:1055B000000CCEF1004E38BFAEF1010EA6FB0C5828
:1055C0004FF000074FF00005E6FB0E87A1FB08C671
:1055D000A0FB07CE16EB0E0645F10005E1FB0765C3
:1055E00015F1E04E7EBFA4F580345FEA46066D41BA
:1055F00016F1800745F100054FEA17274FEA0666C6
:1056000047EA0567A6F1DE46B6F1805F4FEA152549
:105610001FD9384624F0010C05EBC471BCF1FE6FB4
:1056200001EB0C1102D8F0BCBDE8008124425CBF44
:1056300001F5801E9EEAC47F02D4F0BCBDE8008163
:10564000244238D4F0BCA1F1C041BDE8004100F0D3
:105650001AB94FEAD22242EA43524FEAD323A7FBB8
:1056600002864FEAD02040EA415007FB03661EEA5B
:105670000E0F4FEAD12105FB026658BFA6EB00567C
:10568000B6EB00564FEA520E4EEAC37E18EB0E0EF2
:1056900056EB530EBDD518EB02085E417F1C55F149
:1056A0000005B6E74FF480154FF000074FF00006F5
:1056B0004FF00008ADE7F0BC4FF0000001F1C04131
:1056C00001F00041BDE8008111EA0C1F0CEA13153E
:1056D00000D00CE013EA0C1F00F025804FF0000012
:1056E000F0BC81EA030101F00041BDE80081F0BC9B
:1056F000BDE8004181EA030100F0C5B8F0BCBDE897
:10570000004170B500F071F8097EFC3E00F007B86A
:1057100081EA03014FF0000001F00041704781EA87
:10572000030100F0B0B8F0BCBDE800414FF000004C
:1057300021497047FFFDFBF9F7F5F4F2F0EEEDEBD0
:10574000E9E8E6E4E3E1E0DEDDDBDAD8D7D5D4D37F
:10575000D1D0CFCDCCCBCAC8C7C6C5C4C2C1C0BFCB
:10576000BEBDBCBBBAB9B8B7B6B5B4B3B2B1B0AFD1
:10577000AEADACABAAA9A8A8A7A6A5A4A3A3A2A1B5
:10578000A09F9F9E9D9C9C9B9A9999989797969570
:1057900095949393929191908F8F8E8E8D8C8C8B0C
:1057A0008B8A898988888787868585848483838294
:1057B000828181800000FF070000F87F10F0004226
:1057C00048BF4042B0FA80F310FA03F10AD0C3F1A7
:1057D0001D0303F580634FEA415002EB035202EBD5
:1057E000D12170474FF0000070470EF1020E2EF0ED
:1057F000030E5EF8046B364205D4012A43EB030521
:1058000015F5001F12D8012841EB010C1CF5001FF3
:105810000CD80ED14FEAD17C15F5001F0CEB4C0CC7
:105820000CF1020C08BF4CEBD37C04E04FF0080CE9
:1058300001E04FEAD37C0CEB4C0526FA05F606F0A6
:105840000706B6F1040C06D20EEB860CBDE87040DC
:105850004CF0010C6047DFE80CF0090B02024FF03E
:1058600000414FF00000A1F5002170BD194610461F
:10587000012851EB010418BFD4F5001484BF0020A7
:1058800001F0004170BD0808A0F500114FEA310198
:105890007047000010B591EA030F48BF83F0004342
:1058A0003FF594AD841A71EB030C07D212198CF0FA
:1058B000004C43EB0C03001B61EB0C01DFF8A4E18F
:1058C0004FEA1154A4EB135C1EEA430F18BF9EEA83
:1058D000445F00F0B08023EA6E03524221EA045193
:1058E000C3EB6E0338BF5B1EDCF1200E25D322FA1A
:1058F0000CFE10EB0E0043FA0CFE41EB0E01CCF156
:10590000200E03FA0EFE10EB0E0051F10001CCF157
:10591000200E29D412FA0EF201EB0451BDE810401A
:1059200058BF7047401C1CBFB2F1004F70470028A1
:105930000CBF491C20F00100704712EB020E43EB34
:10594000030218BF4FF0010E4EEA4202ACF1200CE8
:10595000DCF11E0E54D943FA0CFE10EB0E0051F18F
:10596000FF31CCF11E0ED5D50EF1010E12FA0EFE4E
:10597000404141EB010101EB445C5FEA5C5C10D902
:1059800010EBDE7001EB045138BFBEF1004FBDE8F3
:10599000104018BF704700280CBF491C20F00100C0
:1059A000704730D24FEAD42C11F5001124F4006472
:1059B0001BD0B1FA81F20B3AA41AA41ED2F1200333
:1059C000914030FA03F31943904001EBCC71002C65
:1059D00001EB0451BDE81040A8BF704701F1C04180
:1059E0004FF0000001F000417047B0FA80F310FA68
:1059F00003F100D110BDE41A173C4805C90AE4E7D9
:105A000001EB045110BD491001EB0451BDE81040F9
:105A10004FEA300002E04FF0000170474A0008BF33
:105A20000042F8D0B2F5001F28BF704701F00041D6
:105A30004FF0000070479EEA445F07D011EA5E0F06
:105A4000BDE8104004BF002100207047BDE81040B1
:105A500070B5FFF7CAFE00BF40DFF63E83F000419D
:105A6000104670470000E0FF90EA010F48BF81F048
:105A7000004100F1FE82421A3CBF801A89184FEAA9
:105A8000D0524FF07F4C1CEA410FA2EBD15318BF0C
:105A90009CEA026F00F03B804FF0004C4CEA002083
:105AA0004CEA012121FA03FC10EB0C0C1ED202F18E
:105AB000FF325FEA1C2040EBC25038BF70471CF039
:105AC0007F0F4FEA400C18BFBCF17F4F38BF7047C3
:105AD000C3F12003994008BF20F00100BCF17F4FC3
